{
  "contractName": "ProofOfExistence",
  "abi": [
    {
      "constant": false,
      "inputs": [],
      "name": "renounceOwnership",
      "outputs": [],
      "payable": false,
      "stateMutability": "nonpayable",
      "type": "function"
    },
    {
      "constant": true,
      "inputs": [],
      "name": "owner",
      "outputs": [
        {
          "name": "",
          "type": "address"
        }
      ],
      "payable": false,
      "stateMutability": "view",
      "type": "function"
    },
    {
      "constant": false,
      "inputs": [
        {
          "name": "_newOwner",
          "type": "address"
        }
      ],
      "name": "transferOwnership",
      "outputs": [],
      "payable": false,
      "stateMutability": "nonpayable",
      "type": "function"
    },
    {
      "inputs": [],
      "payable": false,
      "stateMutability": "nonpayable",
      "type": "constructor"
    },
    {
      "anonymous": false,
      "inputs": [
        {
          "indexed": true,
          "name": "previousOwner",
          "type": "address"
        }
      ],
      "name": "OwnershipRenounced",
      "type": "event"
    },
    {
      "anonymous": false,
      "inputs": [
        {
          "indexed": true,
          "name": "previousOwner",
          "type": "address"
        },
        {
          "indexed": true,
          "name": "newOwner",
          "type": "address"
        }
      ],
      "name": "OwnershipTransferred",
      "type": "event"
    },
    {
      "anonymous": false,
      "inputs": [
        {
          "indexed": false,
          "name": "_newAddress",
          "type": "address"
        }
      ],
      "name": "NewAddressRegistered",
      "type": "event"
    },
    {
      "anonymous": false,
      "inputs": [
        {
          "indexed": false,
          "name": "_address",
          "type": "address"
        },
        {
          "indexed": false,
          "name": "_claimIndex",
          "type": "uint256"
        }
      ],
      "name": "NewClaim",
      "type": "event"
    },
    {
      "constant": true,
      "inputs": [
        {
          "name": "_address",
          "type": "address"
        },
        {
          "name": "_index",
          "type": "uint256"
        }
      ],
      "name": "getClaim",
      "outputs": [
        {
          "name": "claimName",
          "type": "string"
        },
        {
          "name": "claimIpfs",
          "type": "string"
        },
        {
          "name": "claimBlockNumber",
          "type": "uint256"
        },
        {
          "name": "upVote",
          "type": "uint256"
        },
        {
          "name": "downVote",
          "type": "uint256"
        }
      ],
      "payable": false,
      "stateMutability": "view",
      "type": "function"
    },
    {
      "constant": false,
      "inputs": [
        {
          "name": "_name",
          "type": "string"
        },
        {
          "name": "_ipfs",
          "type": "string"
        }
      ],
      "name": "createClaim",
      "outputs": [
        {
          "name": "claimBlockNumber",
          "type": "uint256"
        }
      ],
      "payable": false,
      "stateMutability": "nonpayable",
      "type": "function"
    },
    {
      "constant": false,
      "inputs": [
        {
          "name": "_address",
          "type": "address"
        },
        {
          "name": "_index",
          "type": "uint256"
        }
      ],
      "name": "upVoteClaim",
      "outputs": [
        {
          "name": "claimBlockNumber",
          "type": "uint256"
        }
      ],
      "payable": false,
      "stateMutability": "nonpayable",
      "type": "function"
    },
    {
      "constant": false,
      "inputs": [
        {
          "name": "_address",
          "type": "address"
        },
        {
          "name": "_index",
          "type": "uint256"
        }
      ],
      "name": "downVoteClaim",
      "outputs": [
        {
          "name": "claimBlockNumber",
          "type": "uint256"
        }
      ],
      "payable": false,
      "stateMutability": "nonpayable",
      "type": "function"
    },
    {
      "constant": true,
      "inputs": [
        {
          "name": "_address",
          "type": "address"
        }
      ],
      "name": "getClaimCount",
      "outputs": [
        {
          "name": "",
          "type": "uint256"
        }
      ],
      "payable": false,
      "stateMutability": "view",
      "type": "function"
    },
    {
      "constant": true,
      "inputs": [
        {
          "name": "_address",
          "type": "address"
        }
      ],
      "name": "getBio",
      "outputs": [
        {
          "name": "name",
          "type": "string"
        },
        {
          "name": "ipfs",
          "type": "string"
        },
        {
          "name": "blockNumber",
          "type": "uint256"
        }
      ],
      "payable": false,
      "stateMutability": "view",
      "type": "function"
    },
    {
      "constant": true,
      "inputs": [
        {
          "name": "_index",
          "type": "uint256"
        }
      ],
      "name": "getRegisteredAddress",
      "outputs": [
        {
          "name": "",
          "type": "address"
        }
      ],
      "payable": false,
      "stateMutability": "view",
      "type": "function"
    },
    {
      "constant": true,
      "inputs": [],
      "name": "getRegisteredAddressCount",
      "outputs": [
        {
          "name": "count",
          "type": "uint256"
        }
      ],
      "payable": false,
      "stateMutability": "view",
      "type": "function"
    },
    {
      "constant": false,
      "inputs": [
        {
          "name": "_name",
          "type": "string"
        },
        {
          "name": "_ipfs",
          "type": "string"
        }
      ],
      "name": "registerAddress",
      "outputs": [
        {
          "name": "addressIndex",
          "type": "uint256"
        }
      ],
      "payable": false,
      "stateMutability": "nonpayable",
      "type": "function"
    },
    {
      "constant": false,
      "inputs": [
        {
          "name": "_name",
          "type": "string"
        },
        {
          "name": "_ipfs",
          "type": "string"
        }
      ],
      "name": "updateBio",
      "outputs": [
        {
          "name": "",
          "type": "uint256"
        }
      ],
      "payable": false,
      "stateMutability": "nonpayable",
      "type": "function"
    }
  ],
  "bytecode": "0x60806040523480156200001157600080fd5b506000336000806101000a81548173ffffffffffffffffffffffffffffffffffffffff021916908373ffffffffffffffffffffffffffffffffffffffff1602179055506000905060018190806001815401808255809150509060018203906000526020600020016000909192909190916101000a81548173ffffffffffffffffffffffffffffffffffffffff021916908373ffffffffffffffffffffffffffffffffffffffff160217905550506060604051908101604052806040805190810160405280600b81526020017f5a65726f416464726573730000000000000000000000000000000000000000008152508152602001602060405190810160405280600081525081526020016000815250600360008373ffffffffffffffffffffffffffffffffffffffff1673ffffffffffffffffffffffffffffffffffffffff16815260200190815260200160002060008201518160000190805190602001906200017d929190620001b1565b5060208201518160010190805190602001906200019c929190620001b1565b50604082015181600201559050505062000260565b828054600181600116156101000203166002900490600052602060002090601f016020900481019282601f10620001f457805160ff191683800117855562000225565b8280016001018555821562000225579182015b828111156200022457825182559160200191906001019062000207565b5b50905062000234919062000238565b5090565b6200025d91905b80821115620002595760008160009055506001016200023f565b5090565b90565b611f7180620002706000396000f3006080604052600436106100c5576000357c0100000000000000000000000000000000000000000000000000000000900463ffffffff1680630e71c30c146100ca5780630f79ab39146100f55780633fd0bf171461023c578063508c7cdc1461036b578063715018a6146103d85780638da5cb5b146103ef578063a7b1b57314610446578063cecf0dd2146104a7578063d320dc5314610508578063d5fdfe87146105cb578063eaccc9ae14610622578063f2fde38b146106e5578063fc11c4a214610728575b600080fd5b3480156100d657600080fd5b506100df6107eb565b6040518082815260200191505060405180910390f35b34801561010157600080fd5b50610140600480360381019080803573ffffffffffffffffffffffffffffffffffffffff169060200190929190803590602001909291905050506107f8565b604051808060200180602001868152602001858152602001848152602001838103835288818151815260200191508051906020019080838360005b8381101561019657808201518184015260208101905061017b565b50505050905090810190601f1680156101c35780820380516001836020036101000a031916815260200191505b50838103825287818151815260200191508051906020019080838360005b838110156101fc5780820151818401526020810190506101e1565b50505050905090810190601f1680156102295780820380516001836020036101000a031916815260200191505b5097505050505050505060405180910390f35b34801561024857600080fd5b5061027d600480360381019080803573ffffffffffffffffffffffffffffffffffffffff169060200190929190505050610a06565b604051808060200180602001848152602001838103835286818151815260200191508051906020019080838360005b838110156102c75780820151818401526020810190506102ac565b50505050905090810190601f1680156102f45780820380516001836020036101000a031916815260200191505b50838103825285818151815260200191508051906020019080838360005b8381101561032d578082015181840152602081019050610312565b50505050905090810190601f16801561035a5780820380516001836020036101000a031916815260200191505b509550505050505060405180910390f35b34801561037757600080fd5b5061039660048036038101908080359060200190929190505050610bd1565b604051808273ffffffffffffffffffffffffffffffffffffffff1673ffffffffffffffffffffffffffffffffffffffff16815260200191505060405180910390f35b3480156103e457600080fd5b506103ed610c14565b005b3480156103fb57600080fd5b50610404610d16565b604051808273ffffffffffffffffffffffffffffffffffffffff1673ffffffffffffffffffffffffffffffffffffffff16815260200191505060405180910390f35b34801561045257600080fd5b50610491600480360381019080803573ffffffffffffffffffffffffffffffffffffffff16906020019092919080359060200190929190505050610d3b565b6040518082815260200191505060405180910390f35b3480156104b357600080fd5b506104f2600480360381019080803573ffffffffffffffffffffffffffffffffffffffff16906020019092919080359060200190929190505050611085565b6040518082815260200191505060405180910390f35b34801561051457600080fd5b506105b5600480360381019080803590602001908201803590602001908080601f0160208091040260200160405190810160405280939291908181526020018383808284378201915050505050509192919290803590602001908201803590602001908080601f01602080910402602001604051908101604052809392919081815260200183838082843782019150505050505091929192905050506113d0565b6040518082815260200191505060405180910390f35b3480156105d757600080fd5b5061060c600480360381019080803573ffffffffffffffffffffffffffffffffffffffff169060200190929190505050611732565b6040518082815260200191505060405180910390f35b34801561062e57600080fd5b506106cf600480360381019080803590602001908201803590602001908080601f0160208091040260200160405190810160405280939291908181526020018383808284378201915050505050509192919290803590602001908201803590602001908080601f016020809104026020016040519081016040528093929190818152602001838380828437820191505050505050919291929050505061177e565b6040518082815260200191505060405180910390f35b3480156106f157600080fd5b50610726600480360381019080803573ffffffffffffffffffffffffffffffffffffffff169060200190929190505050611b67565b005b34801561073457600080fd5b506107d5600480360381019080803590602001908201803590602001908080601f0160208091040260200160405190810160405280939291908181526020018383808284378201915050505050509192919290803590602001908201803590602001908080601f0160208091040260200160405190810160405280939291908181526020018383808284378201915050505050509192919290505050611bce565b6040518082815260200191505060405180910390f35b6000600180549050905090565b6060806000806000610808611dce565b600260008973ffffffffffffffffffffffffffffffffffffffff1673ffffffffffffffffffffffffffffffffffffffff1681526020019081526020016000208781548110151561085457fe5b906000526020600020906006020160a06040519081016040529081600082018054600181600116156101000203166002900480601f0160208091040260200160405190810160405280929190818152602001828054600181600116156101000203166002900480156109075780601f106108dc57610100808354040283529160200191610907565b820191906000526020600020905b8154815290600101906020018083116108ea57829003601f168201915b50505050508152602001600182018054600181600116156101000203166002900480601f0160208091040260200160405190810160405280929190818152602001828054600181600116156101000203166002900480156109a95780601f1061097e576101008083540402835291602001916109a9565b820191906000526020600020905b81548152906001019060200180831161098c57829003601f168201915b50505050508152602001600282015481526020016003820154815260200160048201548152505090508060000151816020015182604001518360600151846080015184945083935095509550955095509550509295509295909350565b6060806000610a13611dfe565b600360008673ffffffffffffffffffffffffffffffffffffffff1673ffffffffffffffffffffffffffffffffffffffff16815260200190815260200160002060606040519081016040529081600082018054600181600116156101000203166002900480601f016020809104026020016040519081016040528092919081815260200182805460018160011615610100020316600290048015610af75780601f10610acc57610100808354040283529160200191610af7565b820191906000526020600020905b815481529060010190602001808311610ada57829003601f168201915b50505050508152602001600182018054600181600116156101000203166002900480601f016020809104026020016040519081016040528092919081815260200182805460018160011615610100020316600290048015610b995780601f10610b6e57610100808354040283529160200191610b99565b820191906000526020600020905b815481529060010190602001808311610b7c57829003601f168201915b505050505081526020016002820154815250509050806000015181602001518260400151829250819150935093509350509193909250565b6000600182815481101515610be257fe5b9060005260206000200160009054906101000a900473ffffffffffffffffffffffffffffffffffffffff169050919050565b6000809054906101000a900473ffffffffffffffffffffffffffffffffffffffff1673ffffffffffffffffffffffffffffffffffffffff163373ffffffffffffffffffffffffffffffffffffffff16141515610c6f57600080fd5b6000809054906101000a900473ffffffffffffffffffffffffffffffffffffffff1673ffffffffffffffffffffffffffffffffffffffff167ff8df31144d9c2f0f6b59d69b8b98abd5459d07f2742c4df920b25aae33c6482060405160405180910390a260008060006101000a81548173ffffffffffffffffffffffffffffffffffffffff021916908373ffffffffffffffffffffffffffffffffffffffff160217905550565b6000809054906101000a900473ffffffffffffffffffffffffffffffffffffffff1681565b600080600260008573ffffffffffffffffffffffffffffffffffffffff1673ffffffffffffffffffffffffffffffffffffffff16815260200190815260200160002083815481101515610d8a57fe5b906000526020600020906006020160050160003373ffffffffffffffffffffffffffffffffffffffff1673ffffffffffffffffffffffffffffffffffffffff16815260200190815260200160002060009054906101000a900460ff16905060006002811115610df557fe5b816002811115610e0157fe5b1415610f33576001600260008673ffffffffffffffffffffffffffffffffffffffff1673ffffffffffffffffffffffffffffffffffffffff16815260200190815260200160002084815481101515610e5557fe5b90600052602060002090600602016004016000828254019250508190555060028060008673ffffffffffffffffffffffffffffffffffffffff1673ffffffffffffffffffffffffffffffffffffffff16815260200190815260200160002084815481101515610ec057fe5b906000526020600020906006020160050160003373ffffffffffffffffffffffffffffffffffffffff1673ffffffffffffffffffffffffffffffffffffffff16815260200190815260200160002060006101000a81548160ff02191690836002811115610f2957fe5b021790555061107b565b60016002811115610f4057fe5b816002811115610f4c57fe5b141561107a576001600260008673ffffffffffffffffffffffffffffffffffffffff1673ffffffffffffffffffffffffffffffffffffffff16815260200190815260200160002084815481101515610fa057fe5b90600052602060002090600602016003016000828254039250508190555060028060008673ffffffffffffffffffffffffffffffffffffffff1673ffffffffffffffffffffffffffffffffffffffff1681526020019081526020016000208481548110151561100b57fe5b906000526020600020906006020160050160003373ffffffffffffffffffffffffffffffffffffffff1673ffffffffffffffffffffffffffffffffffffffff16815260200190815260200160002060006101000a81548160ff0219169083600281111561107457fe5b02179055505b5b4391505092915050565b600080600260008573ffffffffffffffffffffffffffffffffffffffff1673ffffffffffffffffffffffffffffffffffffffff168152602001908152602001600020838154811015156110d457fe5b906000526020600020906006020160050160003373ffffffffffffffffffffffffffffffffffffffff1673ffffffffffffffffffffffffffffffffffffffff16815260200190815260200160002060009054906101000a900460ff1690506000600281111561113f57fe5b81600281111561114b57fe5b141561127e576001600260008673ffffffffffffffffffffffffffffffffffffffff1673ffffffffffffffffffffffffffffffffffffffff1681526020019081526020016000208481548110151561119f57fe5b9060005260206000209060060201600301600082825401925050819055506001600260008673ffffffffffffffffffffffffffffffffffffffff1673ffffffffffffffffffffffffffffffffffffffff1681526020019081526020016000208481548110151561120b57fe5b906000526020600020906006020160050160003373ffffffffffffffffffffffffffffffffffffffff1673ffffffffffffffffffffffffffffffffffffffff16815260200190815260200160002060006101000a81548160ff0219169083600281111561127457fe5b02179055506113c6565b60028081111561128a57fe5b81600281111561129657fe5b14156113c5576001600260008673ffffffffffffffffffffffffffffffffffffffff1673ffffffffffffffffffffffffffffffffffffffff168152602001908152602001600020848154811015156112ea57fe5b9060005260206000209060060201600401600082825403925050819055506001600260008673ffffffffffffffffffffffffffffffffffffffff1673ffffffffffffffffffffffffffffffffffffffff1681526020019081526020016000208481548110151561135657fe5b906000526020600020906006020160050160003373ffffffffffffffffffffffffffffffffffffffff1673ffffffffffffffffffffffffffffffffffffffff16815260200190815260200160002060006101000a81548160ff021916908360028111156113bf57fe5b02179055505b5b4391505092915050565b60006113da611dfe565b600360003373ffffffffffffffffffffffffffffffffffffffff1673ffffffffffffffffffffffffffffffffffffffff16815260200190815260200160002060606040519081016040529081600082018054600181600116156101000203166002900480601f0160208091040260200160405190810160405280929190818152602001828054600181600116156101000203166002900480156114be5780601f10611493576101008083540402835291602001916114be565b820191906000526020600020905b8154815290600101906020018083116114a157829003601f168201915b50505050508152602001600182018054600181600116156101000203166002900480601f0160208091040260200160405190810160405280929190818152602001828054600181600116156101000203166002900480156115605780601f1061153557610100808354040283529160200191611560565b820191906000526020600020905b81548152906001019060200180831161154357829003601f168201915b505050505081526020016002820154815250509050600081604001511115156115f1576040517f08c379a00000000000000000000000000000000000000000000000000000000081526004018080602001828103825260138152602001807f4164647265734e6f74526567697374657265640000000000000000000000000081525060200191505060405180910390fd5b83600360003373ffffffffffffffffffffffffffffffffffffffff1673ffffffffffffffffffffffffffffffffffffffff1681526020019081526020016000206000019080519060200190611647929190611e20565b5082600360003373ffffffffffffffffffffffffffffffffffffffff1673ffffffffffffffffffffffffffffffffffffffff168152602001908152602001600020600101908051906020019061169e929190611e20565b5043600360003373ffffffffffffffffffffffffffffffffffffffff1673ffffffffffffffffffffffffffffffffffffffff16815260200190815260200160002060020181905550600360003373ffffffffffffffffffffffffffffffffffffffff1673ffffffffffffffffffffffffffffffffffffffff1681526020019081526020016000206002015491505092915050565b6000600260008373ffffffffffffffffffffffffffffffffffffffff1673ffffffffffffffffffffffffffffffffffffffff168152602001908152602001600020805490509050919050565b6000611788611dfe565b600360003373ffffffffffffffffffffffffffffffffffffffff1673ffffffffffffffffffffffffffffffffffffffff16815260200190815260200160002060606040519081016040529081600082018054600181600116156101000203166002900480601f01602080910402602001604051908101604052809291908181526020018280546001816001161561010002031660029004801561186c5780601f106118415761010080835404028352916020019161186c565b820191906000526020600020905b81548152906001019060200180831161184f57829003601f168201915b50505050508152602001600182018054600181600116156101000203166002900480601f01602080910402602001604051908101604052809291908181526020018280546001816001161561010002031660029004801561190e5780601f106118e35761010080835404028352916020019161190e565b820191906000526020600020905b8154815290600101906020018083116118f157829003601f168201915b5050505050815260200160028201548152505090506000816040015114151561199f576040517f08c379a00000000000000000000000000000000000000000000000000000000081526004018080602001828103825260178152602001807f416464726573416c72656164795265676973746572656400000000000000000081525060200191505060405180910390fd5b6001803390806001815401808255809150509060018203906000526020600020016000909192909190916101000a81548173ffffffffffffffffffffffffffffffffffffffff021916908373ffffffffffffffffffffffffffffffffffffffff16021790555003915083600360003373ffffffffffffffffffffffffffffffffffffffff1673ffffffffffffffffffffffffffffffffffffffff1681526020019081526020016000206000019080519060200190611a5e929190611e20565b5082600360003373ffffffffffffffffffffffffffffffffffffffff1673ffffffffffffffffffffffffffffffffffffffff1681526020019081526020016000206001019080519060200190611ab5929190611e20565b5043600360003373ffffffffffffffffffffffffffffffffffffffff1673ffffffffffffffffffffffffffffffffffffffff168152602001908152602001600020600201819055507f1837db44f707818dfce8415ef80a201e86882bc1bffabdded272512a96c0799e33604051808273ffffffffffffffffffffffffffffffffffffffff1673ffffffffffffffffffffffffffffffffffffffff16815260200191505060405180910390a15092915050565b6000809054906101000a900473ffffffffffffffffffffffffffffffffffffffff1673ffffffffffffffffffffffffffffffffffffffff163373ffffffffffffffffffffffffffffffffffffffff16141515611bc257600080fd5b611bcb81611cd4565b50565b6000611bd8611dce565b60a0604051908101604052808581526020018481526020014381526020016000815260200160008152509050600260003373ffffffffffffffffffffffffffffffffffffffff1673ffffffffffffffffffffffffffffffffffffffff16815260200190815260200160002081908060018154018082558091505090600182039060005260206000209060060201600090919290919091506000820151816000019080519060200190611c8b929190611ea0565b506020820151816001019080519060200190611ca8929190611ea0565b506040820151816002015560608201518160030155608082015181600401555050504391505092915050565b600073ffffffffffffffffffffffffffffffffffffffff168173ffffffffffffffffffffffffffffffffffffffff1614151515611d1057600080fd5b8073ffffffffffffffffffffffffffffffffffffffff166000809054906101000a900473ffffffffffffffffffffffffffffffffffffffff1673ffffffffffffffffffffffffffffffffffffffff167f8be0079c531659141344cd1fd0a4f28419497f9722a3daafe3b4186f6b6457e060405160405180910390a3806000806101000a81548173ffffffffffffffffffffffffffffffffffffffff021916908373ffffffffffffffffffffffffffffffffffffffff16021790555050565b60a06040519081016040528060608152602001606081526020016000815260200160008152602001600081525090565b6060604051908101604052806060815260200160608152602001600081525090565b828054600181600116156101000203166002900490600052602060002090601f016020900481019282601f10611e6157805160ff1916838001178555611e8f565b82800160010185558215611e8f579182015b82811115611e8e578251825591602001919060010190611e73565b5b509050611e9c9190611f20565b5090565b828054600181600116156101000203166002900490600052602060002090601f016020900481019282601f10611ee157805160ff1916838001178555611f0f565b82800160010185558215611f0f579182015b82811115611f0e578251825591602001919060010190611ef3565b5b509050611f1c9190611f20565b5090565b611f4291905b80821115611f3e576000816000905550600101611f26565b5090565b905600a165627a7a7230582095030e10beec873d2652844712b25a6e99fca0654949e025a92ea7a20243516a0029",
  "source": "pragma solidity ^0.4.23;\n\nimport \"./ProofOfExistenceEvents.sol\";\nimport \"./ProofOfExistenceStructs.sol\";\n\nimport \"./openzeppelin-solidity/contracts/ownership/Ownable.sol\";\n\ncontract ProofOfExistence is ProofOfExistenceEvents, ProofOfExistenceStructs, Ownable {\n\n  // ================================================  \n  // Storage\n  // ================================================\n  address[] private registeredAddresses;\n\n  mapping(address => ClaimObject[]) private addressClaim;\n  mapping(address => BioObject) private addressBio;\n\n  // ================================================  \n  // Modifiers\n  // ================================================\n  modifier onlyRegisteredAddresses() {\n    BioObject memory thisAddressBio = addressBio[msg.sender];\n    require(thisAddressBio.blockNumber > 0, \"AddresNotRegistered\");\n    _;\n  }\n\n  modifier onlyNewAddresses() {\n    BioObject memory thisAddressBio = addressBio[msg.sender];\n    require(thisAddressBio.blockNumber == 0, \"AddresAlreadyRegistered\");\n    _;\n  }\n\n  constructor() public { \n    // Create a blank bio, such that there will never be a valid address \n    // at any index 0;\n    address zeroAddress = 0x0;\n    registeredAddresses.push(zeroAddress);\n    addressBio[zeroAddress] = BioObject(\"ZeroAddress\", \"\", 0);\n  }\n\n  function getClaim (address _address, uint256 _index)\n  public\n  view\n  returns (string claimName, string claimIpfs, uint claimBlockNumber, uint upVote, uint downVote)\n  {\n    ClaimObject memory thisClaim = addressClaim[_address][_index];\n    return (thisClaim.name, thisClaim.ipfs, thisClaim.blockNumber, thisClaim.upVoteCount, thisClaim.downVoteCount);\n  }\n\n  function createClaim (string _name, string _ipfs)\n  public\n  returns (uint claimBlockNumber)\n  {\n    ClaimObject memory newClaim = ClaimObject(_name, _ipfs, block.number, 0, 0);\n    addressClaim[msg.sender].push(newClaim);\n    return block.number;\n  }\n\n  function upVoteClaim (address _address, uint256 _index)\n  public\n  returns (uint claimBlockNumber)\n  {\n    EndorseStatus currentVote = addressClaim[_address][_index].Endorsements[msg.sender];\n\n    if(currentVote == EndorseStatus.NoVote) {\n      addressClaim[_address][_index].upVoteCount += 1;\n      addressClaim[_address][_index].Endorsements[msg.sender] = EndorseStatus.UpVote;\n    } else if(currentVote == EndorseStatus.DownVote) {\n      addressClaim[_address][_index].downVoteCount -= 1;\n      addressClaim[_address][_index].Endorsements[msg.sender] = EndorseStatus.UpVote;\n    }\n    \n    return block.number;\n  }\n\n  function downVoteClaim (address _address, uint256 _index)\n  public\n  returns (uint claimBlockNumber)\n  {\n    EndorseStatus currentVote = addressClaim[_address][_index].Endorsements[msg.sender];\n\n    if(currentVote == EndorseStatus.NoVote) {\n      addressClaim[_address][_index].downVoteCount += 1;\n      addressClaim[_address][_index].Endorsements[msg.sender] = EndorseStatus.DownVote;\n    } else if(currentVote == EndorseStatus.UpVote) {\n      addressClaim[_address][_index].upVoteCount -= 1;\n      addressClaim[_address][_index].Endorsements[msg.sender] = EndorseStatus.DownVote;\n    }\n    \n    return block.number;\n  }\n\n  function getClaimCount (address _address)\n  public\n  view\n  returns (uint)\n  {\n    return addressClaim[_address].length;   \n  }\n\n  function getBio (address _address)\n  public\n  view\n  returns (string name, string ipfs, uint blockNumber)\n  {\n    BioObject memory thisBio = addressBio[_address];\n    return (thisBio.name, thisBio.ipfs, thisBio.blockNumber);\n  }\n\n  function getRegisteredAddress (uint256 _index)\n  public\n  view\n  returns (address)\n  {\n    return registeredAddresses[_index];\n  }\n\n  function getRegisteredAddressCount ()\n  public\n  view\n  returns (uint count)\n  {\n    return registeredAddresses.length;\n  }\n\n  function registerAddress (string _name, string _ipfs)\n  public\n  onlyNewAddresses\n  returns (uint addressIndex)\n  {\n    addressIndex = registeredAddresses.push(msg.sender) - 1;\n    // addressBio[msg.sender] = Bio(_name, _ipfs, addressIndex);\n    addressBio[msg.sender].name = _name;\n    addressBio[msg.sender].ipfs = _ipfs;\n    addressBio[msg.sender].blockNumber = block.number;\n\n    emit NewAddressRegistered(msg.sender);\n  }\n\n  function updateBio (string _name, string _ipfs)\n  public\n  onlyRegisteredAddresses\n  returns (uint)\n  {\n    addressBio[msg.sender].name = _name; \n    addressBio[msg.sender].ipfs = _ipfs; \n    addressBio[msg.sender].blockNumber = block.number;\n    return addressBio[msg.sender].blockNumber;\n  }\n\n}\n",
  "sourcePath": "/home/paulz/sourcery/proof-o-existence/contracts/ProofOfExistence.sol",
  "compiler": {
    "name": "solc",
    "version": "0.4.24+commit.e67f0147.Emscripten.clang"
  },
  "schemaVersion": "2.0.1",
  "updatedAt": "2018-08-25T12:13:56.040Z"
}