{
  "contractName": "ProofOfExistence",
  "abi": [
    {
      "constant": false,
      "inputs": [],
      "name": "renounceOwnership",
      "outputs": [],
      "payable": false,
      "stateMutability": "nonpayable",
      "type": "function"
    },
    {
      "constant": true,
      "inputs": [],
      "name": "owner",
      "outputs": [
        {
          "name": "",
          "type": "address"
        }
      ],
      "payable": false,
      "stateMutability": "view",
      "type": "function"
    },
    {
      "constant": false,
      "inputs": [
        {
          "name": "_newOwner",
          "type": "address"
        }
      ],
      "name": "transferOwnership",
      "outputs": [],
      "payable": false,
      "stateMutability": "nonpayable",
      "type": "function"
    },
    {
      "inputs": [],
      "payable": false,
      "stateMutability": "nonpayable",
      "type": "constructor"
    },
    {
      "anonymous": false,
      "inputs": [
        {
          "indexed": true,
          "name": "previousOwner",
          "type": "address"
        }
      ],
      "name": "OwnershipRenounced",
      "type": "event"
    },
    {
      "anonymous": false,
      "inputs": [
        {
          "indexed": true,
          "name": "previousOwner",
          "type": "address"
        },
        {
          "indexed": true,
          "name": "newOwner",
          "type": "address"
        }
      ],
      "name": "OwnershipTransferred",
      "type": "event"
    },
    {
      "anonymous": false,
      "inputs": [
        {
          "indexed": false,
          "name": "_newAddress",
          "type": "address"
        }
      ],
      "name": "NewAddressRegistered",
      "type": "event"
    },
    {
      "anonymous": false,
      "inputs": [
        {
          "indexed": false,
          "name": "_address",
          "type": "address"
        },
        {
          "indexed": false,
          "name": "_claimIndex",
          "type": "uint256"
        }
      ],
      "name": "NewClaim",
      "type": "event"
    },
    {
      "constant": true,
      "inputs": [
        {
          "name": "_address",
          "type": "address"
        },
        {
          "name": "_index",
          "type": "uint256"
        }
      ],
      "name": "getClaim",
      "outputs": [
        {
          "name": "bioName",
          "type": "string"
        },
        {
          "name": "bioIpfs",
          "type": "string"
        },
        {
          "name": "claimName",
          "type": "string"
        },
        {
          "name": "claimDescription",
          "type": "string"
        },
        {
          "name": "claimIpfs",
          "type": "string"
        },
        {
          "name": "claimBlockNumber",
          "type": "uint256"
        }
      ],
      "payable": false,
      "stateMutability": "view",
      "type": "function"
    },
    {
      "constant": true,
      "inputs": [
        {
          "name": "_address",
          "type": "address"
        }
      ],
      "name": "getBio",
      "outputs": [
        {
          "name": "name",
          "type": "string"
        },
        {
          "name": "ipfs",
          "type": "string"
        },
        {
          "name": "index",
          "type": "uint256"
        }
      ],
      "payable": false,
      "stateMutability": "view",
      "type": "function"
    },
    {
      "constant": true,
      "inputs": [
        {
          "name": "_index",
          "type": "uint256"
        }
      ],
      "name": "getRegisteredAddress",
      "outputs": [
        {
          "name": "",
          "type": "address"
        }
      ],
      "payable": false,
      "stateMutability": "view",
      "type": "function"
    },
    {
      "constant": true,
      "inputs": [],
      "name": "getRegisteredAddressCount",
      "outputs": [
        {
          "name": "count",
          "type": "uint256"
        }
      ],
      "payable": false,
      "stateMutability": "view",
      "type": "function"
    },
    {
      "constant": false,
      "inputs": [
        {
          "name": "_name",
          "type": "string"
        },
        {
          "name": "_ipfs",
          "type": "string"
        }
      ],
      "name": "registerAddress",
      "outputs": [
        {
          "name": "addressIndex",
          "type": "uint256"
        }
      ],
      "payable": false,
      "stateMutability": "nonpayable",
      "type": "function"
    },
    {
      "constant": false,
      "inputs": [
        {
          "name": "_name",
          "type": "string"
        },
        {
          "name": "_ipfs",
          "type": "string"
        }
      ],
      "name": "updateBio",
      "outputs": [
        {
          "name": "",
          "type": "uint256"
        }
      ],
      "payable": false,
      "stateMutability": "nonpayable",
      "type": "function"
    }
  ],
  "bytecode": "0x60806040523480156200001157600080fd5b506000336000806101000a81548173ffffffffffffffffffffffffffffffffffffffff021916908373ffffffffffffffffffffffffffffffffffffffff1602179055506000905060018190806001815401808255809150509060018203906000526020600020016000909192909190916101000a81548173ffffffffffffffffffffffffffffffffffffffff021916908373ffffffffffffffffffffffffffffffffffffffff160217905550506060604051908101604052806040805190810160405280600b81526020017f5a65726f416464726573730000000000000000000000000000000000000000008152508152602001602060405190810160405280600081525081526020016000815250600360008373ffffffffffffffffffffffffffffffffffffffff1673ffffffffffffffffffffffffffffffffffffffff16815260200190815260200160002060008201518160000190805190602001906200017d929190620001b1565b5060208201518160010190805190602001906200019c929190620001b1565b50604082015181600201559050505062000260565b828054600181600116156101000203166002900490600052602060002090601f016020900481019282601f10620001f457805160ff191683800117855562000225565b8280016001018555821562000225579182015b828111156200022457825182559160200191906001019062000207565b5b50905062000234919062000238565b5090565b6200025d91905b80821115620002595760008160009055506001016200023f565b5090565b90565b61182e80620002706000396000f300608060405260043610610099576000357c0100000000000000000000000000000000000000000000000000000000900463ffffffff1680630e71c30c1461009e5780630f79ab39146100c95780633fd0bf1714610346578063508c7cdc14610475578063715018a6146104e25780638da5cb5b146104f9578063d320dc5314610550578063eaccc9ae14610613578063f2fde38b146106d6575b600080fd5b3480156100aa57600080fd5b506100b3610719565b6040518082815260200191505060405180910390f35b3480156100d557600080fd5b50610114600480360381019080803573ffffffffffffffffffffffffffffffffffffffff16906020019092919080359060200190929190505050610726565b60405180806020018060200180602001806020018060200187815260200186810386528c818151815260200191508051906020019080838360005b8381101561016a57808201518184015260208101905061014f565b50505050905090810190601f1680156101975780820380516001836020036101000a031916815260200191505b5086810385528b818151815260200191508051906020019080838360005b838110156101d05780820151818401526020810190506101b5565b50505050905090810190601f1680156101fd5780820380516001836020036101000a031916815260200191505b5086810384528a818151815260200191508051906020019080838360005b8381101561023657808201518184015260208101905061021b565b50505050905090810190601f1680156102635780820380516001836020036101000a031916815260200191505b50868103835289818151815260200191508051906020019080838360005b8381101561029c578082015181840152602081019050610281565b50505050905090810190601f1680156102c95780820380516001836020036101000a031916815260200191505b50868103825288818151815260200191508051906020019080838360005b838110156103025780820151818401526020810190506102e7565b50505050905090810190601f16801561032f5780820380516001836020036101000a031916815260200191505b509b50505050505050505050505060405180910390f35b34801561035257600080fd5b50610387600480360381019080803573ffffffffffffffffffffffffffffffffffffffff169060200190929190505050610b78565b604051808060200180602001848152602001838103835286818151815260200191508051906020019080838360005b838110156103d15780820151818401526020810190506103b6565b50505050905090810190601f1680156103fe5780820380516001836020036101000a031916815260200191505b50838103825285818151815260200191508051906020019080838360005b8381101561043757808201518184015260208101905061041c565b50505050905090810190601f1680156104645780820380516001836020036101000a031916815260200191505b509550505050505060405180910390f35b34801561048157600080fd5b506104a060048036038101908080359060200190929190505050610d43565b604051808273ffffffffffffffffffffffffffffffffffffffff1673ffffffffffffffffffffffffffffffffffffffff16815260200191505060405180910390f35b3480156104ee57600080fd5b506104f7610d86565b005b34801561050557600080fd5b5061050e610e88565b604051808273ffffffffffffffffffffffffffffffffffffffff1673ffffffffffffffffffffffffffffffffffffffff16815260200191505060405180910390f35b34801561055c57600080fd5b506105fd600480360381019080803590602001908201803590602001908080601f0160208091040260200160405190810160405280939291908181526020018383808284378201915050505050509192919290803590602001908201803590602001908080601f0160208091040260200160405190810160405280939291908181526020018383808284378201915050505050509192919290505050610ead565b6040518082815260200191505060405180910390f35b34801561061f57600080fd5b506106c0600480360381019080803590602001908201803590602001908080601f0160208091040260200160405190810160405280939291908181526020018383808284378201915050505050509192919290803590602001908201803590602001908080601f01602080910402602001604051908101604052809392919081815260200183838082843782019150505050505091929192905050506111c8565b6040518082815260200191505060405180910390f35b3480156106e257600080fd5b50610717600480360381019080803573ffffffffffffffffffffffffffffffffffffffff1690602001909291905050506115b1565b005b6000600180549050905090565b60608060608060606000610738611712565b61074061173b565b600260008b73ffffffffffffffffffffffffffffffffffffffff1673ffffffffffffffffffffffffffffffffffffffff1681526020019081526020016000208981548110151561078c57fe5b906000526020600020906004020160806040519081016040529081600082018054600181600116156101000203166002900480601f01602080910402602001604051908101604052809291908181526020018280546001816001161561010002031660029004801561083f5780601f106108145761010080835404028352916020019161083f565b820191906000526020600020905b81548152906001019060200180831161082257829003601f168201915b50505050508152602001600182018054600181600116156101000203166002900480601f0160208091040260200160405190810160405280929190818152602001828054600181600116156101000203166002900480156108e15780601f106108b6576101008083540402835291602001916108e1565b820191906000526020600020905b8154815290600101906020018083116108c457829003601f168201915b50505050508152602001600282018054600181600116156101000203166002900480601f0160208091040260200160405190810160405280929190818152602001828054600181600116156101000203166002900480156109835780601f1061095857610100808354040283529160200191610983565b820191906000526020600020905b81548152906001019060200180831161096657829003601f168201915b505050505081526020016003820154815250509150600360008b73ffffffffffffffffffffffffffffffffffffffff1673ffffffffffffffffffffffffffffffffffffffff16815260200190815260200160002060606040519081016040529081600082018054600181600116156101000203166002900480601f016020809104026020016040519081016040528092919081815260200182805460018160011615610100020316600290048015610a7c5780601f10610a5157610100808354040283529160200191610a7c565b820191906000526020600020905b815481529060010190602001808311610a5f57829003601f168201915b50505050508152602001600182018054600181600116156101000203166002900480601f016020809104026020016040519081016040528092919081815260200182805460018160011615610100020316600290048015610b1e5780601f10610af357610100808354040283529160200191610b1e565b820191906000526020600020905b815481529060010190602001808311610b0157829003601f168201915b50505050508152602001600282015481525050905080600001518160200151836000015184602001518560400151866060015185955084945083935082925081915097509750975097509750975050509295509295509295565b6060806000610b8561173b565b600360008673ffffffffffffffffffffffffffffffffffffffff1673ffffffffffffffffffffffffffffffffffffffff16815260200190815260200160002060606040519081016040529081600082018054600181600116156101000203166002900480601f016020809104026020016040519081016040528092919081815260200182805460018160011615610100020316600290048015610c695780601f10610c3e57610100808354040283529160200191610c69565b820191906000526020600020905b815481529060010190602001808311610c4c57829003601f168201915b50505050508152602001600182018054600181600116156101000203166002900480601f016020809104026020016040519081016040528092919081815260200182805460018160011615610100020316600290048015610d0b5780601f10610ce057610100808354040283529160200191610d0b565b820191906000526020600020905b815481529060010190602001808311610cee57829003601f168201915b505050505081526020016002820154815250509050806000015181602001518260400151829250819150935093509350509193909250565b6000600182815481101515610d5457fe5b9060005260206000200160009054906101000a900473ffffffffffffffffffffffffffffffffffffffff169050919050565b6000809054906101000a900473ffffffffffffffffffffffffffffffffffffffff1673ffffffffffffffffffffffffffffffffffffffff163373ffffffffffffffffffffffffffffffffffffffff16141515610de157600080fd5b6000809054906101000a900473ffffffffffffffffffffffffffffffffffffffff1673ffffffffffffffffffffffffffffffffffffffff167ff8df31144d9c2f0f6b59d69b8b98abd5459d07f2742c4df920b25aae33c6482060405160405180910390a260008060006101000a81548173ffffffffffffffffffffffffffffffffffffffff021916908373ffffffffffffffffffffffffffffffffffffffff160217905550565b6000809054906101000a900473ffffffffffffffffffffffffffffffffffffffff1681565b6000610eb761173b565b600360003373ffffffffffffffffffffffffffffffffffffffff1673ffffffffffffffffffffffffffffffffffffffff16815260200190815260200160002060606040519081016040529081600082018054600181600116156101000203166002900480601f016020809104026020016040519081016040528092919081815260200182805460018160011615610100020316600290048015610f9b5780601f10610f7057610100808354040283529160200191610f9b565b820191906000526020600020905b815481529060010190602001808311610f7e57829003601f168201915b50505050508152602001600182018054600181600116156101000203166002900480601f01602080910402602001604051908101604052809291908181526020018280546001816001161561010002031660029004801561103d5780601f106110125761010080835404028352916020019161103d565b820191906000526020600020905b81548152906001019060200180831161102057829003601f168201915b505050505081526020016002820154815250509050600081604001511115156110ce576040517f08c379a00000000000000000000000000000000000000000000000000000000081526004018080602001828103825260138152602001807f4164647265734e6f74526567697374657265640000000000000000000000000081525060200191505060405180910390fd5b83600360003373ffffffffffffffffffffffffffffffffffffffff1673ffffffffffffffffffffffffffffffffffffffff168152602001908152602001600020600001908051906020019061112492919061175d565b5082600360003373ffffffffffffffffffffffffffffffffffffffff1673ffffffffffffffffffffffffffffffffffffffff168152602001908152602001600020600101908051906020019061117b92919061175d565b50600360003373ffffffffffffffffffffffffffffffffffffffff1673ffffffffffffffffffffffffffffffffffffffff1681526020019081526020016000206002015491505092915050565b60006111d261173b565b600360003373ffffffffffffffffffffffffffffffffffffffff1673ffffffffffffffffffffffffffffffffffffffff16815260200190815260200160002060606040519081016040529081600082018054600181600116156101000203166002900480601f0160208091040260200160405190810160405280929190818152602001828054600181600116156101000203166002900480156112b65780601f1061128b576101008083540402835291602001916112b6565b820191906000526020600020905b81548152906001019060200180831161129957829003601f168201915b50505050508152602001600182018054600181600116156101000203166002900480601f0160208091040260200160405190810160405280929190818152602001828054600181600116156101000203166002900480156113585780601f1061132d57610100808354040283529160200191611358565b820191906000526020600020905b81548152906001019060200180831161133b57829003601f168201915b505050505081526020016002820154815250509050600081604001511415156113e9576040517f08c379a00000000000000000000000000000000000000000000000000000000081526004018080602001828103825260178152602001807f416464726573416c72656164795265676973746572656400000000000000000081525060200191505060405180910390fd5b6001803390806001815401808255809150509060018203906000526020600020016000909192909190916101000a81548173ffffffffffffffffffffffffffffffffffffffff021916908373ffffffffffffffffffffffffffffffffffffffff16021790555003915083600360003373ffffffffffffffffffffffffffffffffffffffff1673ffffffffffffffffffffffffffffffffffffffff16815260200190815260200160002060000190805190602001906114a892919061175d565b5082600360003373ffffffffffffffffffffffffffffffffffffffff1673ffffffffffffffffffffffffffffffffffffffff16815260200190815260200160002060010190805190602001906114ff92919061175d565b5081600360003373ffffffffffffffffffffffffffffffffffffffff1673ffffffffffffffffffffffffffffffffffffffff168152602001908152602001600020600201819055507f1837db44f707818dfce8415ef80a201e86882bc1bffabdded272512a96c0799e33604051808273ffffffffffffffffffffffffffffffffffffffff1673ffffffffffffffffffffffffffffffffffffffff16815260200191505060405180910390a15092915050565b6000809054906101000a900473ffffffffffffffffffffffffffffffffffffffff1673ffffffffffffffffffffffffffffffffffffffff163373ffffffffffffffffffffffffffffffffffffffff1614151561160c57600080fd5b61161581611618565b50565b600073ffffffffffffffffffffffffffffffffffffffff168173ffffffffffffffffffffffffffffffffffffffff161415151561165457600080fd5b8073ffffffffffffffffffffffffffffffffffffffff166000809054906101000a900473ffffffffffffffffffffffffffffffffffffffff1673ffffffffffffffffffffffffffffffffffffffff167f8be0079c531659141344cd1fd0a4f28419497f9722a3daafe3b4186f6b6457e060405160405180910390a3806000806101000a81548173ffffffffffffffffffffffffffffffffffffffff021916908373ffffffffffffffffffffffffffffffffffffffff16021790555050565b608060405190810160405280606081526020016060815260200160608152602001600081525090565b6060604051908101604052806060815260200160608152602001600081525090565b828054600181600116156101000203166002900490600052602060002090601f016020900481019282601f1061179e57805160ff19168380011785556117cc565b828001600101855582156117cc579182015b828111156117cb5782518255916020019190600101906117b0565b5b5090506117d991906117dd565b5090565b6117ff91905b808211156117fb5760008160009055506001016117e3565b5090565b905600a165627a7a7230582075c04430adaf0bc8fcdc32d0fdb0fd95853c6b0c2ad42302d9780b2d3e9b03f90029",
  "source": "pragma solidity ^0.4.23;\n\nimport \"./ProofOfExistenceEvents.sol\";\nimport \"./ProofOfExistenceStructs.sol\";\n\nimport \"./openzeppelin-solidity/contracts/ownership/Ownable.sol\";\n\ncontract ProofOfExistence is ProofOfExistenceEvents, ProofOfExistenceStructs, Ownable {\n\n  // ================================================  \n  // Storage\n  // ================================================\n  address[] private registeredAddresses;\n\n  mapping(address => Claim[]) private addressClaimIndex;\n  mapping(address => Bio) private addressBio;\n\n  // ================================================  \n  // Modifiers\n  // ================================================\n  modifier onlyRegisteredAddresses() {\n    Bio memory thisAddressBio = addressBio[msg.sender];\n    require(thisAddressBio.index > 0, \"AddresNotRegistered\");\n    _;\n  }\n\n  modifier onlyNewAddresses() {\n    Bio memory thisAddressBio = addressBio[msg.sender];\n    require(thisAddressBio.index == 0, \"AddresAlreadyRegistered\");\n    _;\n  }\n\n  constructor() public { \n    // Create a blank bio, such that there will never be a valid address \n    // at any index 0;\n    address zeroAddress = 0x0;\n    registeredAddresses.push(zeroAddress);\n    addressBio[zeroAddress] = Bio(\"ZeroAddress\", \"\", 0);\n  }\n\n  function getClaim (address _address, uint256 _index)\n  public\n  view\n  returns (string bioName, string bioIpfs, string claimName, string claimDescription, string claimIpfs, uint claimBlockNumber)\n  {\n    Claim memory thisClaim = addressClaimIndex[_address][_index];\n    Bio memory thisBio = addressBio[_address];\n    return (thisBio.name, thisBio.ipfs, thisClaim.name, thisClaim.description, thisClaim.ipfs, thisClaim.blockNumber);\n  }\n\n  function getBio (address _address)\n  public\n  view\n  returns (string name, string ipfs, uint index)\n  {\n    Bio memory thisBio = addressBio[_address];\n    return (thisBio.name, thisBio.ipfs, thisBio.index);\n  }\n\n  function getRegisteredAddress (uint256 _index)\n  public\n  view\n  returns (address)\n  {\n    return registeredAddresses[_index];\n  }\n\n  function getRegisteredAddressCount ()\n  public\n  view\n  returns (uint count)\n  {\n    return registeredAddresses.length;\n  }\n\n  function registerAddress (string _name, string _ipfs)\n  public\n  onlyNewAddresses\n  returns (uint addressIndex)\n  {\n    addressIndex = registeredAddresses.push(msg.sender) - 1;\n    // addressBio[msg.sender] = Bio(_name, _ipfs, addressIndex);\n    addressBio[msg.sender].name = _name;\n    addressBio[msg.sender].ipfs = _ipfs;\n    addressBio[msg.sender].index = addressIndex;\n\n    emit NewAddressRegistered(msg.sender);\n  }\n\n  function updateBio (string _name, string _ipfs)\n  public\n  onlyRegisteredAddresses\n  returns (uint)\n  {\n    addressBio[msg.sender].name = _name; \n    addressBio[msg.sender].ipfs = _ipfs; \n    return addressBio[msg.sender].index;\n  }\n\n}\n",
  "sourcePath": "/home/paulz/sourcery/proof-o-existence/contracts/ProofOfExistence.sol",
  "compiler": {
    "name": "solc",
    "version": "0.4.24+commit.e67f0147.Emscripten.clang"
  },
  "schemaVersion": "2.0.1",
  "updatedAt": "2018-08-21T18:21:49.153Z"
}