{
  "contractName": "ProofOfExistence",
  "abi": [
    {
      "constant": false,
      "inputs": [],
      "name": "renounceOwnership",
      "outputs": [],
      "payable": false,
      "stateMutability": "nonpayable",
      "type": "function"
    },
    {
      "constant": true,
      "inputs": [],
      "name": "owner",
      "outputs": [
        {
          "name": "",
          "type": "address"
        }
      ],
      "payable": false,
      "stateMutability": "view",
      "type": "function"
    },
    {
      "constant": false,
      "inputs": [
        {
          "name": "_newOwner",
          "type": "address"
        }
      ],
      "name": "transferOwnership",
      "outputs": [],
      "payable": false,
      "stateMutability": "nonpayable",
      "type": "function"
    },
    {
      "inputs": [],
      "payable": false,
      "stateMutability": "nonpayable",
      "type": "constructor"
    },
    {
      "anonymous": false,
      "inputs": [
        {
          "indexed": true,
          "name": "previousOwner",
          "type": "address"
        }
      ],
      "name": "OwnershipRenounced",
      "type": "event"
    },
    {
      "anonymous": false,
      "inputs": [
        {
          "indexed": true,
          "name": "previousOwner",
          "type": "address"
        },
        {
          "indexed": true,
          "name": "newOwner",
          "type": "address"
        }
      ],
      "name": "OwnershipTransferred",
      "type": "event"
    },
    {
      "anonymous": false,
      "inputs": [
        {
          "indexed": false,
          "name": "_newAddress",
          "type": "address"
        }
      ],
      "name": "NewAddressRegistered",
      "type": "event"
    },
    {
      "anonymous": false,
      "inputs": [
        {
          "indexed": false,
          "name": "_address",
          "type": "address"
        },
        {
          "indexed": false,
          "name": "_claimIndex",
          "type": "uint256"
        }
      ],
      "name": "NewClaim",
      "type": "event"
    },
    {
      "constant": true,
      "inputs": [
        {
          "name": "_address",
          "type": "address"
        },
        {
          "name": "_index",
          "type": "uint256"
        }
      ],
      "name": "getClaim",
      "outputs": [
        {
          "name": "claimName",
          "type": "string"
        },
        {
          "name": "claimIpfs",
          "type": "string"
        },
        {
          "name": "claimBlockNumber",
          "type": "uint256"
        }
      ],
      "payable": false,
      "stateMutability": "view",
      "type": "function"
    },
    {
      "constant": false,
      "inputs": [
        {
          "name": "name",
          "type": "string"
        },
        {
          "name": "ipfs",
          "type": "string"
        }
      ],
      "name": "createClaim",
      "outputs": [
        {
          "name": "claimBlockNumber",
          "type": "uint256"
        }
      ],
      "payable": false,
      "stateMutability": "nonpayable",
      "type": "function"
    },
    {
      "constant": true,
      "inputs": [
        {
          "name": "_address",
          "type": "address"
        }
      ],
      "name": "getClaimCount",
      "outputs": [
        {
          "name": "",
          "type": "uint256"
        }
      ],
      "payable": false,
      "stateMutability": "view",
      "type": "function"
    },
    {
      "constant": true,
      "inputs": [
        {
          "name": "_address",
          "type": "address"
        }
      ],
      "name": "getBio",
      "outputs": [
        {
          "name": "name",
          "type": "string"
        },
        {
          "name": "ipfs",
          "type": "string"
        },
        {
          "name": "blockNumber",
          "type": "uint256"
        }
      ],
      "payable": false,
      "stateMutability": "view",
      "type": "function"
    },
    {
      "constant": true,
      "inputs": [
        {
          "name": "_index",
          "type": "uint256"
        }
      ],
      "name": "getRegisteredAddress",
      "outputs": [
        {
          "name": "",
          "type": "address"
        }
      ],
      "payable": false,
      "stateMutability": "view",
      "type": "function"
    },
    {
      "constant": true,
      "inputs": [],
      "name": "getRegisteredAddressCount",
      "outputs": [
        {
          "name": "count",
          "type": "uint256"
        }
      ],
      "payable": false,
      "stateMutability": "view",
      "type": "function"
    },
    {
      "constant": false,
      "inputs": [
        {
          "name": "_name",
          "type": "string"
        },
        {
          "name": "_ipfs",
          "type": "string"
        }
      ],
      "name": "registerAddress",
      "outputs": [
        {
          "name": "addressIndex",
          "type": "uint256"
        }
      ],
      "payable": false,
      "stateMutability": "nonpayable",
      "type": "function"
    },
    {
      "constant": false,
      "inputs": [
        {
          "name": "_name",
          "type": "string"
        },
        {
          "name": "_ipfs",
          "type": "string"
        }
      ],
      "name": "updateBio",
      "outputs": [
        {
          "name": "",
          "type": "uint256"
        }
      ],
      "payable": false,
      "stateMutability": "nonpayable",
      "type": "function"
    }
  ],
  "bytecode": "0x60806040523480156200001157600080fd5b506000336000806101000a81548173ffffffffffffffffffffffffffffffffffffffff021916908373ffffffffffffffffffffffffffffffffffffffff1602179055506000905060018190806001815401808255809150509060018203906000526020600020016000909192909190916101000a81548173ffffffffffffffffffffffffffffffffffffffff021916908373ffffffffffffffffffffffffffffffffffffffff160217905550506060604051908101604052806040805190810160405280600b81526020017f5a65726f416464726573730000000000000000000000000000000000000000008152508152602001602060405190810160405280600081525081526020016000815250600360008373ffffffffffffffffffffffffffffffffffffffff1673ffffffffffffffffffffffffffffffffffffffff16815260200190815260200160002060008201518160000190805190602001906200017d929190620001b1565b5060208201518160010190805190602001906200019c929190620001b1565b50604082015181600201559050505062000260565b828054600181600116156101000203166002900490600052602060002090601f016020900481019282601f10620001f457805160ff191683800117855562000225565b8280016001018555821562000225579182015b828111156200022457825182559160200191906001019062000207565b5b50905062000234919062000238565b5090565b6200025d91905b80821115620002595760008160009055506001016200023f565b5090565b90565b61177c80620002706000396000f3006080604052600436106100af576000357c0100000000000000000000000000000000000000000000000000000000900463ffffffff1680630e71c30c146100b45780630f79ab39146100df5780633fd0bf1714610218578063508c7cdc14610347578063715018a6146103b45780638da5cb5b146103cb578063d320dc5314610422578063d5fdfe87146104e5578063eaccc9ae1461053c578063f2fde38b146105ff578063fc11c4a214610642575b600080fd5b3480156100c057600080fd5b506100c9610705565b6040518082815260200191505060405180910390f35b3480156100eb57600080fd5b5061012a600480360381019080803573ffffffffffffffffffffffffffffffffffffffff16906020019092919080359060200190929190505050610712565b604051808060200180602001848152602001838103835286818151815260200191508051906020019080838360005b83811015610174578082015181840152602081019050610159565b50505050905090810190601f1680156101a15780820380516001836020036101000a031916815260200191505b50838103825285818151815260200191508051906020019080838360005b838110156101da5780820151818401526020810190506101bf565b50505050905090810190601f1680156102075780820380516001836020036101000a031916815260200191505b509550505050505060405180910390f35b34801561022457600080fd5b50610259600480360381019080803573ffffffffffffffffffffffffffffffffffffffff1690602001909291905050506108f8565b604051808060200180602001848152602001838103835286818151815260200191508051906020019080838360005b838110156102a3578082015181840152602081019050610288565b50505050905090810190601f1680156102d05780820380516001836020036101000a031916815260200191505b50838103825285818151815260200191508051906020019080838360005b838110156103095780820151818401526020810190506102ee565b50505050905090810190601f1680156103365780820380516001836020036101000a031916815260200191505b509550505050505060405180910390f35b34801561035357600080fd5b5061037260048036038101908080359060200190929190505050610ac3565b604051808273ffffffffffffffffffffffffffffffffffffffff1673ffffffffffffffffffffffffffffffffffffffff16815260200191505060405180910390f35b3480156103c057600080fd5b506103c9610b06565b005b3480156103d757600080fd5b506103e0610c08565b604051808273ffffffffffffffffffffffffffffffffffffffff1673ffffffffffffffffffffffffffffffffffffffff16815260200191505060405180910390f35b34801561042e57600080fd5b506104cf600480360381019080803590602001908201803590602001908080601f0160208091040260200160405190810160405280939291908181526020018383808284378201915050505050509192919290803590602001908201803590602001908080601f0160208091040260200160405190810160405280939291908181526020018383808284378201915050505050509192919290505050610c2d565b6040518082815260200191505060405180910390f35b3480156104f157600080fd5b50610526600480360381019080803573ffffffffffffffffffffffffffffffffffffffff169060200190929190505050610f8f565b6040518082815260200191505060405180910390f35b34801561054857600080fd5b506105e9600480360381019080803590602001908201803590602001908080601f0160208091040260200160405190810160405280939291908181526020018383808284378201915050505050509192919290803590602001908201803590602001908080601f0160208091040260200160405190810160405280939291908181526020018383808284378201915050505050509192919290505050610fdb565b6040518082815260200191505060405180910390f35b34801561060b57600080fd5b50610640600480360381019080803573ffffffffffffffffffffffffffffffffffffffff1690602001909291905050506113c4565b005b34801561064e57600080fd5b506106ef600480360381019080803590602001908201803590602001908080601f0160208091040260200160405190810160405280939291908181526020018383808284378201915050505050509192919290803590602001908201803590602001908080601f016020809104026020016040519081016040528093929190818152602001838380828437820191505050505050919291929050505061142b565b6040518082815260200191505060405180910390f35b6000600180549050905090565b606080600061071f611609565b600260008773ffffffffffffffffffffffffffffffffffffffff1673ffffffffffffffffffffffffffffffffffffffff1681526020019081526020016000208581548110151561076b57fe5b906000526020600020906003020160606040519081016040529081600082018054600181600116156101000203166002900480601f01602080910402602001604051908101604052809291908181526020018280546001816001161561010002031660029004801561081e5780601f106107f35761010080835404028352916020019161081e565b820191906000526020600020905b81548152906001019060200180831161080157829003601f168201915b50505050508152602001600182018054600181600116156101000203166002900480601f0160208091040260200160405190810160405280929190818152602001828054600181600116156101000203166002900480156108c05780601f10610895576101008083540402835291602001916108c0565b820191906000526020600020905b8154815290600101906020018083116108a357829003601f168201915b505050505081526020016002820154815250509050806000015181602001518260400151829250819150935093509350509250925092565b6060806000610905611609565b600360008673ffffffffffffffffffffffffffffffffffffffff1673ffffffffffffffffffffffffffffffffffffffff16815260200190815260200160002060606040519081016040529081600082018054600181600116156101000203166002900480601f0160208091040260200160405190810160405280929190818152602001828054600181600116156101000203166002900480156109e95780601f106109be576101008083540402835291602001916109e9565b820191906000526020600020905b8154815290600101906020018083116109cc57829003601f168201915b50505050508152602001600182018054600181600116156101000203166002900480601f016020809104026020016040519081016040528092919081815260200182805460018160011615610100020316600290048015610a8b5780601f10610a6057610100808354040283529160200191610a8b565b820191906000526020600020905b815481529060010190602001808311610a6e57829003601f168201915b505050505081526020016002820154815250509050806000015181602001518260400151829250819150935093509350509193909250565b6000600182815481101515610ad457fe5b9060005260206000200160009054906101000a900473ffffffffffffffffffffffffffffffffffffffff169050919050565b6000809054906101000a900473ffffffffffffffffffffffffffffffffffffffff1673ffffffffffffffffffffffffffffffffffffffff163373ffffffffffffffffffffffffffffffffffffffff16141515610b6157600080fd5b6000809054906101000a900473ffffffffffffffffffffffffffffffffffffffff1673ffffffffffffffffffffffffffffffffffffffff167ff8df31144d9c2f0f6b59d69b8b98abd5459d07f2742c4df920b25aae33c6482060405160405180910390a260008060006101000a81548173ffffffffffffffffffffffffffffffffffffffff021916908373ffffffffffffffffffffffffffffffffffffffff160217905550565b6000809054906101000a900473ffffffffffffffffffffffffffffffffffffffff1681565b6000610c37611609565b600360003373ffffffffffffffffffffffffffffffffffffffff1673ffffffffffffffffffffffffffffffffffffffff16815260200190815260200160002060606040519081016040529081600082018054600181600116156101000203166002900480601f016020809104026020016040519081016040528092919081815260200182805460018160011615610100020316600290048015610d1b5780601f10610cf057610100808354040283529160200191610d1b565b820191906000526020600020905b815481529060010190602001808311610cfe57829003601f168201915b50505050508152602001600182018054600181600116156101000203166002900480601f016020809104026020016040519081016040528092919081815260200182805460018160011615610100020316600290048015610dbd5780601f10610d9257610100808354040283529160200191610dbd565b820191906000526020600020905b815481529060010190602001808311610da057829003601f168201915b50505050508152602001600282015481525050905060008160400151111515610e4e576040517f08c379a00000000000000000000000000000000000000000000000000000000081526004018080602001828103825260138152602001807f4164647265734e6f74526567697374657265640000000000000000000000000081525060200191505060405180910390fd5b83600360003373ffffffffffffffffffffffffffffffffffffffff1673ffffffffffffffffffffffffffffffffffffffff1681526020019081526020016000206000019080519060200190610ea492919061162b565b5082600360003373ffffffffffffffffffffffffffffffffffffffff1673ffffffffffffffffffffffffffffffffffffffff1681526020019081526020016000206001019080519060200190610efb92919061162b565b5043600360003373ffffffffffffffffffffffffffffffffffffffff1673ffffffffffffffffffffffffffffffffffffffff16815260200190815260200160002060020181905550600360003373ffffffffffffffffffffffffffffffffffffffff1673ffffffffffffffffffffffffffffffffffffffff1681526020019081526020016000206002015491505092915050565b6000600260008373ffffffffffffffffffffffffffffffffffffffff1673ffffffffffffffffffffffffffffffffffffffff168152602001908152602001600020805490509050919050565b6000610fe5611609565b600360003373ffffffffffffffffffffffffffffffffffffffff1673ffffffffffffffffffffffffffffffffffffffff16815260200190815260200160002060606040519081016040529081600082018054600181600116156101000203166002900480601f0160208091040260200160405190810160405280929190818152602001828054600181600116156101000203166002900480156110c95780601f1061109e576101008083540402835291602001916110c9565b820191906000526020600020905b8154815290600101906020018083116110ac57829003601f168201915b50505050508152602001600182018054600181600116156101000203166002900480601f01602080910402602001604051908101604052809291908181526020018280546001816001161561010002031660029004801561116b5780601f106111405761010080835404028352916020019161116b565b820191906000526020600020905b81548152906001019060200180831161114e57829003601f168201915b505050505081526020016002820154815250509050600081604001511415156111fc576040517f08c379a00000000000000000000000000000000000000000000000000000000081526004018080602001828103825260178152602001807f416464726573416c72656164795265676973746572656400000000000000000081525060200191505060405180910390fd5b6001803390806001815401808255809150509060018203906000526020600020016000909192909190916101000a81548173ffffffffffffffffffffffffffffffffffffffff021916908373ffffffffffffffffffffffffffffffffffffffff16021790555003915083600360003373ffffffffffffffffffffffffffffffffffffffff1673ffffffffffffffffffffffffffffffffffffffff16815260200190815260200160002060000190805190602001906112bb92919061162b565b5082600360003373ffffffffffffffffffffffffffffffffffffffff1673ffffffffffffffffffffffffffffffffffffffff168152602001908152602001600020600101908051906020019061131292919061162b565b5043600360003373ffffffffffffffffffffffffffffffffffffffff1673ffffffffffffffffffffffffffffffffffffffff168152602001908152602001600020600201819055507f1837db44f707818dfce8415ef80a201e86882bc1bffabdded272512a96c0799e33604051808273ffffffffffffffffffffffffffffffffffffffff1673ffffffffffffffffffffffffffffffffffffffff16815260200191505060405180910390a15092915050565b6000809054906101000a900473ffffffffffffffffffffffffffffffffffffffff1673ffffffffffffffffffffffffffffffffffffffff163373ffffffffffffffffffffffffffffffffffffffff1614151561141f57600080fd5b6114288161150f565b50565b6000611435611609565b606060405190810160405280858152602001848152602001438152509050600260003373ffffffffffffffffffffffffffffffffffffffff1673ffffffffffffffffffffffffffffffffffffffff168152602001908152602001600020819080600181540180825580915050906001820390600052602060002090600302016000909192909190915060008201518160000190805190602001906114da9291906116ab565b5060208201518160010190805190602001906114f79291906116ab565b50604082015181600201555050504391505092915050565b600073ffffffffffffffffffffffffffffffffffffffff168173ffffffffffffffffffffffffffffffffffffffff161415151561154b57600080fd5b8073ffffffffffffffffffffffffffffffffffffffff166000809054906101000a900473ffffffffffffffffffffffffffffffffffffffff1673ffffffffffffffffffffffffffffffffffffffff167f8be0079c531659141344cd1fd0a4f28419497f9722a3daafe3b4186f6b6457e060405160405180910390a3806000806101000a81548173ffffffffffffffffffffffffffffffffffffffff021916908373ffffffffffffffffffffffffffffffffffffffff16021790555050565b6060604051908101604052806060815260200160608152602001600081525090565b828054600181600116156101000203166002900490600052602060002090601f016020900481019282601f1061166c57805160ff191683800117855561169a565b8280016001018555821561169a579182015b8281111561169957825182559160200191906001019061167e565b5b5090506116a7919061172b565b5090565b828054600181600116156101000203166002900490600052602060002090601f016020900481019282601f106116ec57805160ff191683800117855561171a565b8280016001018555821561171a579182015b828111156117195782518255916020019190600101906116fe565b5b509050611727919061172b565b5090565b61174d91905b80821115611749576000816000905550600101611731565b5090565b905600a165627a7a7230582069d1dbe4adb8a8bde7a48b2bb69588d9dc5dc29f6d4454db0af533e468022e770029",
  "source": "pragma solidity ^0.4.23;\n\nimport \"./ProofOfExistenceEvents.sol\";\nimport \"./ProofOfExistenceStructs.sol\";\n\nimport \"./openzeppelin-solidity/contracts/ownership/Ownable.sol\";\n\ncontract ProofOfExistence is ProofOfExistenceEvents, ProofOfExistenceStructs, Ownable {\n\n  // ================================================  \n  // Storage\n  // ================================================\n  address[] private registeredAddresses;\n\n  mapping(address => IpfsObject[]) private addressClaim;\n  mapping(address => IpfsObject) private addressBio;\n\n  // ================================================  \n  // Modifiers\n  // ================================================\n  modifier onlyRegisteredAddresses() {\n    IpfsObject memory thisAddressBio = addressBio[msg.sender];\n    require(thisAddressBio.blockNumber > 0, \"AddresNotRegistered\");\n    _;\n  }\n\n  modifier onlyNewAddresses() {\n    IpfsObject memory thisAddressBio = addressBio[msg.sender];\n    require(thisAddressBio.blockNumber == 0, \"AddresAlreadyRegistered\");\n    _;\n  }\n\n  constructor() public { \n    // Create a blank bio, such that there will never be a valid address \n    // at any index 0;\n    address zeroAddress = 0x0;\n    registeredAddresses.push(zeroAddress);\n    addressBio[zeroAddress] = IpfsObject(\"ZeroAddress\", \"\", 0);\n  }\n\n  function getClaim (address _address, uint256 _index)\n  public\n  view\n  returns (string claimName, string claimIpfs, uint claimBlockNumber)\n  {\n    IpfsObject memory thisClaim = addressClaim[_address][_index];\n    return (thisClaim.name, thisClaim.ipfs, thisClaim.blockNumber);\n  }\n\n  function createClaim (string name, string ipfs)\n  public\n  returns (uint claimBlockNumber)\n  {\n    IpfsObject memory newClaim = IpfsObject(name, ipfs, block.number);\n    addressClaim[msg.sender].push(newClaim);\n    return block.number;\n  }\n\n  function getClaimCount (address _address)\n  public\n  view\n  returns (uint)\n  {\n    return addressClaim[_address].length;   \n  }\n\n  function getBio (address _address)\n  public\n  view\n  returns (string name, string ipfs, uint blockNumber)\n  {\n    IpfsObject memory thisBio = addressBio[_address];\n    return (thisBio.name, thisBio.ipfs, thisBio.blockNumber);\n  }\n\n  function getRegisteredAddress (uint256 _index)\n  public\n  view\n  returns (address)\n  {\n    return registeredAddresses[_index];\n  }\n\n  function getRegisteredAddressCount ()\n  public\n  view\n  returns (uint count)\n  {\n    return registeredAddresses.length;\n  }\n\n  function registerAddress (string _name, string _ipfs)\n  public\n  onlyNewAddresses\n  returns (uint addressIndex)\n  {\n    addressIndex = registeredAddresses.push(msg.sender) - 1;\n    // addressBio[msg.sender] = Bio(_name, _ipfs, addressIndex);\n    addressBio[msg.sender].name = _name;\n    addressBio[msg.sender].ipfs = _ipfs;\n    addressBio[msg.sender].blockNumber = block.number;\n\n    emit NewAddressRegistered(msg.sender);\n  }\n\n  function updateBio (string _name, string _ipfs)\n  public\n  onlyRegisteredAddresses\n  returns (uint)\n  {\n    addressBio[msg.sender].name = _name; \n    addressBio[msg.sender].ipfs = _ipfs; \n    addressBio[msg.sender].blockNumber = block.number;\n    return addressBio[msg.sender].blockNumber;\n  }\n\n}\n",
  "sourcePath": "/home/paulz/sourcery/proof-o-existence/contracts/ProofOfExistence.sol",
  "compiler": {
    "name": "solc",
    "version": "0.4.24+commit.e67f0147.Emscripten.clang"
  },
  "schemaVersion": "2.0.1",
  "updatedAt": "2018-08-22T18:27:12.288Z"
}